:100000000C942A000C9434000C9434000C943400AA
:100010000C9434000C9434000C9434000C94340090
:100020000C9434000C9434000C9434000C94340080
:100030000C9434000C9434000C9434000C94340070
:100040000C9434000C9434000C9434000C94340060
:100050000C94340011241FBECFE5D8E0DEBFCDBF25
:100060000E9436000C9460000C94000080EF81BB6D
:1000700012BA80E016C0482F50E04B5F5F4F21E07E
:1000800030E002C0220F331F4A95E2F722BB2FEF68
:1000900039E698E1215030409040E1F700C000007F
:1000A0008F5F833040F382B3806182BB2FEF39E6EC
:1000B00088E1215030408040E1F700C00000D8CFF7
:0400C000F894FFCFE2
:00000001FF
