S01200004C43445F4B45595041442E7372656322
S11300000C942A000C943F000C943F000C943F0085
S11300100C943F000C943F000C943F000C943F0060
S11300200C943F000C943F000C943F000C943F0050
S11300300C943F000C943F000C943F000C943F0040
S11300400C943F000C943F000C943F000C943F0030
S11300500C943F0011241FBECFE5D8E0DEBFCDBF16
S113006010E0A0E6B0E0EEEBF2E002C005900D92E5
S1130070AC38B107D9F70E9417010C945D010C94B8
S113008000008FE081BB80EF82BB08950F931F9324
S1130090CF93DF93CDB7DEB760970FB6F894DEBF8A
S11300A00FBECDBF80E1E0E6F0E0DE0111960190E5
S11300B00D928A95E1F78FEF70E041C092B39F6093
S11300C092BB92B3A72FB0E041E050E0072E02C0EC
S11300D0440F551F0A94E2F74095492342BB90E030
S11300E029C060B3E92FF0E08F010C5F1F4F21E0BE
S11300F030E0A901002E02C0440F551F0A94E2F714
S1130100262F30E02423352302C0359527950A9500
S1130110E2F721110EC0AA0FBB1FAA0FBB1F81E07B
S113012090E08C0F9D1FA80FB91FEA0FFB1F808161
S113013003C09F5F9430A8F2222321F07F5F7430C4
S113014008F4BCCF60960FB6F894DEBF0FBECDBFE7
S1130150DF91CF911F910F91089588B3886088BB78
S11301608FE493EC0197F1F700C0000088B3877F18
S113017088BB8FE493EC0197F1F700C00000089569
S113018098B39D7F98BB98B39B7F98BB8BBB0E9411
S1130190AD008FE59AEE0197F1F700C000000895D5
S11301A02FEF81EE94E0215080409040E1F700C0B1
S11301B0000087B3826087BB87B3846087BB87B343
S11301C0886087BB88B38D7F88BB88B38B7F88BBEF
S11301D08FEF8ABB81E00E94C00088E30E94C000C8
S11301E086E00E94C00080E80E94C0008FE00E9468
S11301F0C000089598B3926098BB98B39B7F98BB56
S11302008BBB0E94AD008FE59AEE0197F1F700C019
S113021000000895CF93DF93EC0103C00E94FA001D
S1130220219688818111FACFDF91CF9108950E94A0
S1130230D0008FE39CE90197F1F700C0000080E74C
S113024090E00E940A019FEF29E688E19150204046
S11302508040E1F700C0000081E00E94C0000E94DD
S113026041008CE790E00E940A019FEF29E688E1B3
S1130270915020408040E1F700C0000081E00E94DE
S1130280C000C0E00E9446008F3F61F0CF5F0E9433
S1130290FA009FEF21EE84E0915020408040E1F786
S11302A000C00000C03119F480EC0E94C000C032CC
S11102B048F380E80E94C000E4CFF894FFCF2A
S11302BE3738392F3435362A3132332D41303D2BF0
S11302CE6C636420697320776F726B006B65797051
S10F02DE616420697320776F726B00006C
S9030000FC
