:100000000C942A000C9434000C9434000C943400AA
:100010000C9434000C9434000C9434000C94340090
:100020000C9434000C9434000C9434000C94340080
:100030000C9434000C9434000C9434000C94340070
:100040000C9434000C9434000C9434000C94340060
:100050000C94340011241FBECFE5D8E0DEBFCDBF25
:100060000E9436000C944D000C94000081B3806116
:1000700081BB82B38F7E82BB809BFBCF82B38061CA
:1000800082BB2FEF84E39CE0215080409040E1F759
:0E00900000C000008099FECFECCFF894FFCFA7
:00000001FF
