:020000040800F2
:1000000000280020B50300080504000805040008C6
:1000100005040008050400080504000800000000AD
:1000200000000000000000000000000005040008BF
:10003000050400080000000005040008050400088D
:10004000050400080504000805040008050400086C
:10005000050400080504000805040008050400085C
:10006000050400080504000805040008050400084C
:10007000050400080504000805040008050400083C
:10008000050400080504000805040008050400082C
:10009000050400080504000805040008050400081C
:1000A000050400080504000805040008050400080C
:1000B00005040008050400080504000805040008FC
:1000C00005040008050400080504000805040008EC
:1000D00005040008050400080504000805040008DC
:1000E00005040008050400080000000005040008DD
:1000F00005040008050400080504000805040008BC
:1001000005040008050400080504000805040008AB
:10011000050400080504000805040008050400089B
:10012000050400080504000805040008050400088B
:1001300010B5054C237833B9044B13B10448AFF321
:1001400000800123237010BD00000020000000008B
:100150005004000808B5034B1BB103490348AFF333
:10016000008008BD000000000400002050040008CA
:1001700080B485B000AF786039603B681B78072B8E
:1001800002D97B68043300E07B68FB60FB681B6876
:100190003A68127802F0070292000F2101FA02F287
:1001A000D2431A40FB681A600023FB723B685B78FD
:1001B0009B005AB23B689B785BB213435AB297F9E3
:1001C0000B3013435BB2FB72FB681B68F97A3A6829
:1001D000127802F00702920001FA02F21A43FB6859
:1001E0001A603B689B78002B1DD13B685B78022B23
:1001F0000AD17B68DB683A681278114601228A408E
:100200001A437B68DA600EE03B685B78032B0AD107
:100210007B68DB683A681278114601228A40D24333
:100220001A407B68DA6000BF1437BD4680BC704757
:1002300080B483B000AF78600B46FB707B689A682F
:10024000FB7822FA03F3DBB203F00103DBB21846BA
:100250000C37BD4680BC704780B483B000AF786077
:100260000B46FB707B68DB68FA78012101FA02F229
:100270005A407B68DA6000BF0C37BD4680BC7047CF
:1002800080B485B000AF78600023FB600CE00023F1
:10029000BB6002E0BB680133BB60BB68B3F5FA7FAB
:1002A000F8D3FB680133FB60FA687B689A42EED3AF
:1002B00000BF00BF1437BD4680BC704780B500AF9B
:1002C00000F02CF800F03EF801211248FFF7B0FFD3
:1002D0000346002B0BD101210F48FFF7BDFF00BFE4
:1002E00001210C48FFF7A4FF0346002BF8D00D2195
:1002F0000848FFF79DFF0346012B06D10D21064854
:10030000FFF7AAFF0520FFF7BBFF0A20FFF7B8FFA2
:10031000DAE700BF00080140000C014080B400AFE4
:10032000074B9B69064A43F004039361044B9B69A6
:10033000034A43F00803936100BFBD4680BC704789
:100340000010024080B582B000AF01233B71002352
:100350007B710123BB713B1D19461448FFF708FF51
:100360000D233B7100237B710123BB713B1D19469B
:100370000E48FFF7FDFE01233B7101237B71002333
:10038000BB713B1D19460A48FFF7F2FE0D233B7176
:1003900001237B710023BB713B1D19460448FFF705
:1003A000E7FE00BF0837BD4680BD00BF000C01401E
:1003B000000801400D488546AFF300800C480D4908
:1003C0000D4A002302E0D458C4500433C4188C42B0
:1003D000F9D30A4A0A4C002301E013600432A24216
:1003E000FBD300F011F8FFF769FFFEE700280020BB
:1003F0000000002000000020700400080000002021
:100400001C000020FEE7000070B500260C4D0D4CCE
:10041000641BA410A64209D100F01AF800260A4D68
:100420000A4C641BA410A64205D170BD55F8043BCC
:1004300098470136EEE755F8043B98470136F2E756
:100440006804000868040008680400086C040008D8
:10045000F8B500BFF8BC08BC9E467047F8B500BFB1
:08046000F8BC08BC9E46704781
:040468005501000832
:04046C003101000852
:04000005080003B537
:00000001FF
