:020000040800F2
:100000000028002041080008910800089108000815
:1000100091080008910800089108000800000000FD
:10002000000000000000000000000000910800082F
:1000300091080008000000009108000891080008DD
:10004000910800089108000891080008910800082C
:10005000910800089108000891080008910800081C
:10006000910800089108000891080008910800080C
:1000700091080008910800089108000891080008FC
:1000800091080008910800089108000891080008EC
:1000900091080008910800089108000891080008DC
:1000A00091080008910800089108000891080008CC
:1000B00091080008910800089108000891080008BC
:1000C00091080008910800089108000891080008AC
:1000D000910800089108000891080008910800089C
:1000E000910800089108000800000000910800082D
:1000F000910800089108000891080008910800087C
:10010000910800089108000891080008910800086B
:10011000910800089108000891080008910800085B
:10012000910800089108000891080008910800084B
:1001300010B5054C237833B9044B13B10448AFF321
:1001400000800123237010BD10000020000000007B
:10015000DC08000808B5034B1BB103490348AFF3A3
:10016000008008BD0000000014000020DC0800082A
:1001700080B582B000AF1B4B9B691A4A43F008035D
:10018000936100237B700123BB700023FB710BE0A4
:10019000FB79154AD35C3B703B461946134800F087
:1001A00013FAFB790133FB71FB79032BF0D902239E
:1001B0007B700023BB700023BB710BE0BB790C4A42
:1001C000D35C3B703B461946084800F0FDF9BB790B
:1001D0000133BB71BB79032BF0D900BF00BF0837D7
:1001E000BD4680BD0010024020090008000C0140FF
:1001F0002409000880B582B000AFFF233B710023C3
:10020000FB714CE0002301221946294800F057FAFF
:10021000012301221946264800F051FA0323012246
:100220001946234800F04BFA0423012219462048BE
:1002300000F045FAFB791F4AD35C002219461C489E
:1002400000F03DFA0023BB7123E0BB791A4AD35C6E
:100250001946174800F01FFA03467B717B79002B83
:1002600014D1FA79BB79154992000A4413441B78DA
:100270003B7108E0BB79104AD35C19460C4800F08A
:100280000AFA03467B717B79002BF3D0BB790133EB
:10029000BB71BB79032BD8D9FB790133FB71FB7997
:1002A000032BAFD93B7918460837BD4680BD00BF48
:1002B000000C014020090008240900082809000852
:1002C00080B485B000AF78600023FB600BE00023B2
:1002D000BB6002E0BB680133BB60BB68FE2BF9D991
:1002E000FB680133FB60FA687B689A42EFD300BF7A
:1002F00000BF1437BD4680BC7047000080B582B097
:1003000000AF00233B7100237B710123BB710023ED
:10031000FB7109E0FB793B713B1D19461A4800F05F
:1003200053F9FB790133FB71FB79072BF2D90823D1
:100330003B7000237B700123BB703B46194612487B
:1003400000F042F909233B703B4619460E4800F085
:100350003BF90A233B703B4619460B4800F034F941
:1003600000220821084800F0AAF9002209210648C5
:1003700000F0A5F900220A21034800F0A0F900BF0F
:100380000837BD4680BD00BF0008014080B500AF02
:1003900001220A21064800F092F91E20FFF790FF83
:1003A00000220A21024800F08AF900BF80BD00BF88
:1003B0000008014080B500AF1E20FFF781FFFFF766
:1003C0009DFF1E20FFF77CFF012000F00FF8382072
:1003D00000F00CF8062000F009F8802000F006F884
:1003E0000F2000F003F800BF80BD000080B582B090
:1003F00000AF0346FB7100220821104800F05FF9AE
:10040000002209210D4800F05AF90C4BDB680B4A19
:1004100023F0FF03D360094BDA68FB7907491343E4
:10042000CB600120FFF74CFFFFF7B0FF1E20FFF766
:1004300047FF00BF0837BD4680BD00BF0008014030
:1004400080B582B000AF0346FB71012208210E483F
:1004500000F035F9002209210B4800F030F90A4B71
:10046000DB68094A23F0FF03D360074BDA68FB79A6
:1004700005491343CB600120FFF722FFFFF786FFFA
:1004800000BF0837BD4680BD0008014080B584B07C
:1004900000AF78600023FB7318E07B681B78184678
:1004A000FFF7CEFF7B6801337B60FB7B0133FB737F
:1004B000FB7B102B02D1C020FFF798FFFB7B202B8A
:1004C00004D18020FFF792FF0023FB737B681B7829
:1004D000002BE2D100BF00BF1037BD4680BD80B504
:1004E00084B000AF786000237B730123BB737B680B
:1004F0001B79FB730CE0FB7B3B737B681B6807F18C
:100500000C021146184600F05FF8FB7B0133FB73C9
:100510007B681B79DA1DFB7B9A42ECDA7B685B799E
:10052000012B0DD17B681B68D9687B681B791A4643
:100530007F2303FA02F27B681B680A43DA600CE04F
:100540007B681B68D9687B681B791A467F239340B8
:10055000DA437B681B680A40DA6000BF1037BD468B
:1005600080BD000080B485B000AF78600B46FB70A2
:10057000FB78144AD35CFB737B685B79012B02D157
:10058000FB7BDB43FB737B681B68D9687B681B794B
:100590001A467F239340DA437B681B680A40DA607F
:1005A0007B681B68D968FB7B7A68127903FA02F2D0
:1005B0007B681B680A43DA6000BF1437BD4680BC05
:1005C000704700BF0000002080B487B000AF7860A3
:1005D00039603B681B78072B02D97B68043300E045
:1005E0007B687B613B681B7803F007039B000F224D
:1005F00002FA03F33B617B691A683B69DB431A40EB
:100600007B691A600023FB733B685B78022B28BF71
:100610000223BB73BB7B9B005AB23B689B785BB2E7
:1006200013435AB297F90F3013435BB2FB737B69E4
:100630001B68F97B3A68127802F00702920001FA0F
:1006400002F21A437B691A603B689B78002B1DD12C
:100650003B685B78022B0AD17B68DB683A681278CA
:10066000114601228A401A437B68DA600EE03B683B
:100670005B78032B0AD17B68DB683A6812781146F5
:1006800001228A40D2431A407B68DA6000BF1C37DF
:10069000BD4680BC704780B483B000AF78600B4625
:1006A000FB707B689A68FB7822FA03F3DBB203F0F5
:1006B0000103DBB218460C37BD4680BC704780B4DE
:1006C00083B000AF78600B46FB701346BB70BB78FD
:1006D000012B09D17B68DB68FA78012101FA02F26B
:1006E0001A437B68DA6009E07B68DB68FA780121ED
:1006F00001FA02F2D2431A407B68DA6000BF0C377D
:10070000BD4680BC7047000080B400AF074B9B69BA
:10071000064A43F004039361044B9B69034A43F088
:100720000803936100BFBD4680BC704700100240C3
:1007300080B485B000AF78600023FB600BE000233D
:10074000BB6002E0BB680133BB60BB68FE2BF9D91C
:10075000FB680133FB60FA687B689A42EFD300BF05
:1007600000BF1437BD4680BC7047000080B584B020
:1007700000AFFFF7C9FFFFF71DFE0A20FFF7D8FF04
:100780002B48FFF783FE4FF4FA70FFF7D1FF0120EB
:10079000FFF72CFE0A20FFF7CBFFFFF7E9FC254807
:1007A000FFF774FE4FF4FA70FFF7C2FF0120FFF766
:1007B0001DFE0A20FFF7BCFF1F4B7B6009233B7225
:1007C00001237B723B1D1846FFF789FE1B48FFF78C
:1007D0005DFE4FF4FA70FFF7ABFF0120FFF706FE56
:1007E0000023FB73FFF706FD0346BB73BB7BFF2BA8
:1007F0000ED0FB7B0133FB73BB7B1846FFF720FE5B
:10080000BB7B303BDAB23B1D11461846FFF7AAFE10
:10081000FB7B102B02D1C020FFF7E8FDFB7B1F2BD9
:10082000E0D98020FFF7E2FD0023FB73DAE700BF89
:10083000F408000800090008000C01401009000835
:100840000D488546AFF300800C480D490D4A002342
:1008500002E0D458C4500433C4188C42F9D30A4A75
:100860000A4C002301E013600432A242FBD300F0E3
:1008700011F8FFF77BFFFEE70028002000000020B2
:100880001000002040090008100000202C0000206B
:10089000FEE7000070B500260C4D0D4C641BA41043
:1008A000A64209D100F01AF800260A4D0A4C641B32
:1008B000A410A64205D170BD55F8043B98470136F7
:1008C000EEE755F8043B98470136F2E7380900088F
:1008D00038090008380900083C090008F8B500BFCD
:1008E000F8BC08BC9E467047F8B500BFF8BC08BC11
:0408F0009E46704769
:1008F4006C636420697320776F726B006B65797029
:10090400616420697320776F726B000037736567C9
:1009140020697320776F726B0000000000010304EC
:10092400050607083738392F3435362A3132332D46
:0409340041303D2BE6
:04093800550100085D
:04093C00310100087D
:100940003F065B4F666D7D477F6F777C395E7971BF
:0400000508000841A6
:00000001FF
