S01A000073656374696F6E5F6C63645F346D6F64655F2E73726563EC
S11300000C942A000C943F000C943F000C943F0085
S11300100C943F000C943F000C943F000C943F0060
S11300200C943F000C943F000C943F000C943F0050
S11300300C943F000C943F000C943F000C943F0040
S11300400C943F000C943F000C943F000C943F0030
S11300500C943F0011241FBECFE5D8E0DEBFCDBF16
S113006010E0A0E6B0E0E8EDF1E002C005900D92EA
S1130070A037B107D9F70E94DA000C94EA000C9477
S1130080000088B3886088BB8FE493EC0197F1F794
S113009000C0000088B3877F88BB8FE493EC01978E
S11300A0F1F700C000000895CF93C82F88B38D7F67
S11300B088BB88B38B7F88BB8BB38F708BBB8BB3B0
S11300C09C2F907F892B8BBB0E9441008BB38F7038
S11300D08BBB2BB330E1C39FC0011124822B8BBB9C
S11300E00E9441008FE59AEE0197F1F700C00000ED
S11300F0CF9108952FEF81EE94E0215080409040FD
S1130100E1F700C0000087B3826087BB87B38460D7
S113011087BB87B3886087BB88B38D7F88BB88B370
S11301208B7F88BB8FEF8ABB82E00E94540088E2F9
S11301300E94540086E00E94540080E80E9454000B
S11301408FE00E94540081E00E9454000895CF93F0
S1130150C82F88B3826088BB88B38B7F88BB8BB37E
S11301608F708BBB8BB39C2F907F892B8BBB0E9492
S113017041008BB38F708BBB2BB330E1C39FC001A5
S11301801124822B8BBB0E9441008FE59AEE0197CC
S1130190F1F700C00000CF910895CF93DF93EC01F5
S11301A003C00E94A700219688818111FACFDF91B4
S11301B0CF9108950E947A002FEF81EE94E02150B0
S11301C080409040E1F700C0000080E690E00E948B
S10B01D0CD00FFCFF894FFCF2E
S11301D86C6561726E2D696E2D64657074680000BB
S9030000FC
