:100000000C946B000C9480000C9480000C94800085
:100010000C9480000C9480000C9480000C94800060
:100020000C9480000C9480000C9480000C94800050
:100030000C9480000C9480000C9480000C94800040
:100040000C9480000C9480000C9480000C94800030
:100050000C94800007634236B79BD8A71A396856BC
:1000600018AEBAAB558C1D3CB7CC5763BD6DEDFDDA
:10007000753EF6177231BF000000803F0800000097
:10008000BE922449123EABAAAA2ABECDCCCC4C3E8D
:1000900000000080BEABAAAAAA3E00000000BF007C
:1000A0000000803F0000000000084178D3BB438778
:1000B000D1133D190E3CC3BD4282AD2B3E68EC828C
:1000C00076BED98FE1A93E4C80EFFFBE01C4FF7F11
:1000D0003F000000000011241FBECFE5D8E0DEBFC6
:1000E000CDBF10E0A0E6B0E0EEEAF3E102C005907B
:1000F0000D92A638B107D9F70E944D020C94D5098C
:100100000C9400008FE081BB80EF82BB08950F93B9
:100110001F93CF93DF93CDB7DEB760970FB6F894F8
:10012000DEBF0FBECDBF80E1E0E6F0E0DE0111965C
:1001300001900D928A95E1F78FEF70E041C092B384
:100140009F6092BB92B3A72FB0E041E050E0072E32
:1001500002C0440F551F0A94E2F74095492342BB61
:1001600090E029C060B3E92FF0E08F010C5F1F4FD2
:1001700021E030E0A901002E02C0440F551F0A946F
:10018000E2F7262F30E02423352302C0359527954A
:100190000A95E2F721110EC0AA0FBB1FAA0FBB1FC1
:1001A00081E090E08C0F9D1FA80FB91FEA0FFB1F85
:1001B000808103C09F5F9430A8F2222321F07F5FEB
:1001C000743008F4BCCF60960FB6F894DEBF0FBE53
:1001D000CDBFDF91CF911F910F91089588B38860B3
:1001E00088BB8FE493EC0197F1F700C0000088B35F
:1001F000877F88BB8FE493EC0197F1F700C0000084
:100200000895CF93C82F88B38D7F88BB88B38B7F29
:1002100088BB8BB38F708BBB8BB39C2F907F892B4C
:100220008BBB0E94EE008BB38F708BBB2BB330E186
:10023000C39FC0011124822B8BBB0E94EE008FE56F
:100240009AEE0197F1F700C00000CF9108952FEFCB
:1002500081EE94E0215080409040E1F700C0000022
:1002600087B3826087BB87B3846087BB87B38860AE
:1002700087BB88B38D7F88BB88B38B7F88BB8FEFAC
:100280008ABB82E00E94010188E20E94010186E0AF
:100290000E94010180E80E9401018FE00E9401019B
:1002A00081E00E9401010895CF93C82F88B3826036
:1002B00088BB88B38B7F88BB8BB38F708BBB8BB3B2
:1002C0009C2F907F892B8BBB0E94EE008BB38F708D
:1002D0008BBB2BB330E1C39FC0011124822B8BBB9E
:1002E0000E94EE008FE59AEE0197F1F700C0000042
:1002F000CF910895CF93DF93EC0103C00E94540186
:10030000219688818111FACFDF91CF9108958F9244
:100310009F92AF92BF92CF92DF92EF92FF920F9394
:1003200069017A010B3249F018F40A3221F145C013
:100330000D3291F00F3271F140C00E946B044B01FD
:100340005C01C701B6010E946B049B01AC01C501B1
:10035000B4010E94570338C00E946B044B015C013A
:10036000C701B6010E946B049B01AC01C501B40139
:100370000E94560329C00E946B044B015C01C70117
:10038000B6010E946B049B01AC01C501B4010E943F
:10039000F9041AC0232B242B252B99F00E946B04FF
:1003A0004B015C01C701B6010E946B049B01AC01CB
:1003B000C501B4010E94C30307C060E070E0CB0137
:1003C00003C060E070E0CB010F91FF90EF90DF90F1
:1003D000CF90BF90AF909F908F9008958F929F92F3
:1003E000AF92BF92CF92DF92EF92FF921F93CF9383
:1003F000DF93D82F192F4A015B01C22FCB01BA011D
:100400000E9435046B017C01072E000C880B990BB0
:100410000E946D049B01AC01C501B4010E9456030A
:100420004B015C016C2F70E080E090E00E946B0457
:100430009B01AC0160E070E080E291E40E946605FF
:100440009B01AC01C501B4010E94F9040E9435046E
:100450009B01672B11F02F5F3F4F3F932F93DF924C
:10046000CF9280E790E09F938F931F93DF930E943A
:10047000EB068DB79EB708960FB6F8949EBF0FBED9
:100480008DBFDF91CF911F91FF90EF90DF90CF90C4
:10049000BF90AF909F908F900895CF93DF93CDB78B
:1004A000DEB7E2970FB6F894DEBF0FBECDBFFE01F8
:1004B000319682E3DF011D928A95E9F70E942701B8
:1004C0000E94820086E790E00E947A01BFEF24E359
:1004D0008CE0B15020408040E1F700C0000081E096
:1004E0000E94010100E00F2EFBE27F2EF02D812CF7
:1004F000912C5401C12CD12C760110E00E94870070
:100500008F3F09F4C6C099819923A1F081E00E9430
:100510000101FE01319680E1DF011D928A95E9F724
:10052000BFE728E381E0B15020408040E1F700C000
:100530000000E4CF8134C1F481E00E9401019FE713
:10054000A8E3B1E09150A040B040E1F700C0000046
:100550000F2EFBE27F2EF02D812C912C5401C12C0B
:10056000D12C760110E0CACF90ED980F9A3008F0A8
:1005700042C001111EC0CC0CDD1CEE1CFF1CB701DB
:10058000A601440F551F661F771F440F551F661F96
:10059000771FC40ED51EE61EF71E482F50E04053AD
:1005A0005109052E000C660B770BC40ED51EE61EF6
:1005B000F71E002309F461C0880C991CAA1CBB1CFF
:1005C000B501A401440F551F661F771F440F551F27
:1005D000661F771F840E951EA61EB71E482F50E07B
:1005E00040535109052E000C660B770B840E951EA7
:1005F000A61EB71E42C08B32A9F18D32B1F18A32EC
:10060000B9F18F32C1F18D33C1F5072DA5019401E8
:10061000C701B6010E9487016B017C0181E00E9445
:10062000010122E0B701A601CE0101960E94EE0170
:10063000CE0101960E947A012FE788E391E02150D4
:1006400080409040E1F700C0000000E00F2EFBE288
:100650007F2EF02D812C912C5401C12CD12C7601B0
:1006600010E04CCF782E01E008C0782E01E005C0E4
:10067000782E01E002C0782E01E01F5F0E94540135
:10068000AFE7BAE126E0A150B0402040E1F700C05A
:100690000000103119F480EC0E940101103208F4BE
:1006A0002DCF80E80E94010110E028CF5058BB27D1
:1006B000AA270E946E030C94BF040E94B10438F074
:1006C0000E94B80420F039F49F3F19F426F40C94EA
:1006D000AE040EF4E095E7FB0C94A804E92F0E9409
:1006E000D00458F3BA17620773078407950720F000
:1006F00079F4A6F50C94F2040EF4E0950B2EBA2FC3
:10070000A02D0B01B90190010C01CA01A001112417
:10071000FF27591B99F0593F50F4503E68F11A16C3
:10072000F040A22F232F342F4427585FF3CF469554
:1007300037952795A795F0405395C9F77EF41F1676
:10074000BA0B620B730B840BBAF09150A1F0FF0F40
:10075000BB1F661F771F881FC2F70EC0BA0F621F2C
:10076000731F841F48F4879577956795B795F7951C
:100770009E3F08F0B0CF9395880F08F09927EE0FB1
:100780009795879508950E94D7030C94BF040E9403
:10079000B80458F00E94B10440F029F45F3F29F0FA
:1007A0000C94A80451110C94F3040C94AE040E9410
:1007B000D00468F39923B1F3552391F3951B550B9E
:1007C000BB27AA2762177307840738F09F5F5F4F24
:1007D000220F331F441FAA1FA9F335D00E2E3AF063
:1007E000E0E832D091505040E695001CCAF72BD07B
:1007F000FE2F29D0660F771F881FBB1F26173707CC
:100800004807AB07B0E809F0BB0B802DBF01FF27FD
:1008100093585F4F3AF09E3F510578F00C94A8042E
:100820000C94F3045F3FE4F3983ED4F386957795F8
:100830006795B795F7959F5FC9F7880F911D9695B6
:10084000879597F90895E1E0660F771F881FBB1F12
:10085000621773078407BA0720F0621B730B840BBF
:10086000BA0BEE1F88F7E09508950E943C04689447
:10087000B1110C94F30408950E94D80488F09F5796
:1008800098F0B92F9927B751B0F0E1F0660F771FB4
:10089000881F991F1AF0BA95C9F714C0B13091F0AA
:1008A0000E94F204B1E008950C94F204672F782FAF
:1008B0008827B85F39F0B93FCCF38695779567956F
:1008C000B395D9F73EF490958095709561957F4FDB
:1008D0008F4F9F4F0895E89409C097FB3EF4909581
:1008E0008095709561957F4F8F4F9F4F9923A9F009
:1008F000F92F96E9BB279395F69587957795679598
:10090000B795F111F8CFFAF4BB0F11F460FF1BC0DB
:100910006F5F7F4F8F4F9F4F16C0882311F096E96E
:1009200011C0772321F09EE8872F762F05C066231C
:1009300071F096E8862F70E060E02AF09A95660FD5
:10094000771F881FDAF7880F9695879597F908958E
:1009500097F99F6780E870E060E008959FEF80EC72
:10096000089500240A941616170618060906089515
:1009700000240A9412161306140605060895092E7B
:100980000394000C11F4882352F0BB0F40F4BF2BEA
:1009900011F460FF04C06F5F7F4F8F4F9F4F08952A
:1009A00057FD9058440F551F59F05F3F71F0479520
:1009B000880F97FB991F61F09F3F79F08795089505
:1009C000121613061406551FF2CF4695F1DF08C024
:1009D000161617061806991FF1CF86957105610541
:1009E00008940895E894BB2766277727CB0197F9E9
:1009F00008950E940C050C94BF040E94B10438F0C5
:100A00000E94B80420F0952311F00C94A8040C94D3
:100A1000AE0411240C94F3040E94D00470F3959F4B
:100A2000C1F3950F50E0551F629FF001729FBB27E5
:100A3000F00DB11D639FAA27F00DB11DAA1F649F81
:100A40006627B00DA11D661F829F2227B00DA11D34
:100A5000621F739FB00DA11D621F839FA00D611DBA
:100A6000221F749F3327A00D611D231F849F600DDB
:100A7000211D822F762F6A2F11249F5750409AF004
:100A8000F1F088234AF0EE0FFF1FBB1F661F771F90
:100A9000881F91505040A9F79E3F510580F00C945B
:100AA000A8040C94F3045F3FE4F3983ED4F38695D6
:100AB00077956795B795F795E7959F5FC1F7FE2BFB
:100AC000880F911D9695879597F90895FA01EE0F75
:100AD000FF1F309621053105A1F16115710561F403
:100AE0008038BFE39B0749F168949038810561F035
:100AF0008038BFEF9B0741F099234AF5FF3FE1059E
:100B00003105210519F1E8940894E795D901AA2344
:100B100029F4AB2FBE2FF85FD0F310C0FF5F70F445
:100B2000A695E0F7F73950F019F0FF3A38F49F77BF
:100B30009F930DD00F9007FC9058089546F00C94A9
:100B4000AE0460E070E080E89FE308954FE79F7790
:100B50005F934F933F932F930E9461062F913F9194
:100B60004F915F910E94F9040C94BE0529F416F090
:100B70000C94A8040C94F2040C94AE040E94D804C3
:100B8000A8F39638A0F707F80F92E8942BE33AEA17
:100B900048EB5FE70E940F050F920F920F924DB73F
:100BA0005EB70F920E94A906E4E5F0E00E94F0050E
:100BB0004F915F91EF91FF91E595EE1FFF1F49F077
:100BC000FE57E0684427EE0F441FFA95E1F7419580
:100BD000550B0E9423060F9007FE0C9417060895EC
:100BE000DF93CF931F930F93FF92EF92DF927B01DE
:100BF0008C01689406C0DA2EEF010E940C05FE01FC
:100C0000E894A5912591359145915591A6F3EF0171
:100C10000E946E03FE019701A801DA9469F7DF9044
:100C2000EF90FF900F911F91CF91DF9108959B015D
:100C3000AC0160E070E080E89FE30C94C3030C9487
:100C4000A8040C94DD060E94D804D8F39923C9F3B4
:100C5000940F511DA3F39150504094F059F0882304
:100C600032F0660F771F881F91505040C1F79E3FAA
:100C700051052CF7880F911D9695879597F9089542
:100C80005F3FACF0983E9CF0BB27869577956795C3
:100C9000B79508F4B1609395C1F7BB0F58F711F4FD
:100CA00060FFE8CF6F5F7F4F8F4F9F4FE3CF0C9474
:100CB000F30416F00C94DD060C94AE0468940C94C6
:100CC000A8040E94D804A8F39923C1F3AEF3DF93DC
:100CD000CF931F930F93FF92C92FDD2788232AF00C
:100CE0002197660F771F881FDAF720E030E040E891
:100CF0005FEB9FE3883920F0803E38F021968F77B4
:100D00000E945703ECE7F0E004C00E945703E9EAB1
:100D1000F0E00E94F0058B01BE01EC01FB2E6F5745
:100D200071097595771F880B990B0E946D0428E156
:100D300032E741E35FE30E940C05AF2D9801AE015D
:100D4000FF900F911F91CF91DF910E946E030C9441
:100D5000BF04FA01DC01AA0FBB1F9B01AC01BF5706
:100D600028F4222733274427507820C0B75190F425
:100D7000AB2F0024469537952795011CA395D2F3F8
:100D8000002071F0220F331F441FB395DAF30ED009
:100D90000C94560361307105A0E88A07B94630F417
:100DA0009B01AC016627772788279078309621F041
:100DB000208331834283538308959F3F31F09150C4
:100DC00020F4879577956795B795880F911D96952F
:100DD000879597F90895AEE0B0E0E1EFF6E00C9466
:100DE000AC090D891E8986E08C831A8309838FEFF5
:100DF0009FE79E838D83AE01475E5F4F6F89788D3D
:100E0000CE0101960E940D07EF81F885E00FF11FDA
:100E100010822E96E4E00C94C809ABE0B0E0E3E168
:100E2000F7E00C949E096C017B018A01FC0117829A
:100E30001682838181FFCCC1CE0101963C01F6016F
:100E40009381F70193FD859193FF81917F01882321
:100E500009F4BAC1853239F493FD859193FF8191EC
:100E60007F01853229F4B60190E00E940409E7CFA2
:100E7000912C212C312CFFE1F315D8F08B3279F035
:100E800038F4803279F08332A1F4232D20611DC023
:100E90008D3261F0803369F4232D216016C0832DDB
:100EA0008260382EE32DE4603E2E2AC0F32DF860D8
:100EB0001DC037FC2DC020ED280F2A3040F08E32A7
:100EC000B9F436FC81C1232D2064322E19C036FEC0
:100ED00006C08AE0989E200D1124922E11C0EAE0EF
:100EE0002E9E200D1124222EF32DF0623F2E08C0DD
:100EF0008C3621F4832D8068382E02C0883641F468
:100F0000F70193FD859193FF81917F018111B3CF0B
:100F1000982F9F7D9554933028F40C5F1F4F9FE3CB
:100F200099830DC0833631F0833771F0833509F032
:100F300059C021C0F801808189830E5F1F4F88242A
:100F40008394912C530113C02801F2E04F0E511CE1
:100F5000F801A080B18036FE03C0692D70E002C0A8
:100F60006FEF7FEFC5010E94F9084C018201F32D5C
:100F7000FF773F2E16C0280122E0420E511CF801D7
:100F8000A080B18036FE03C0692D70E002C06FEF13
:100F90007FEFC5010E94EE084C01F32DF0683F2E53
:100FA000820133FC1BC0822D90E088169906B0F4B4
:100FB000B60180E290E00E9404092A94F4CFF50182
:100FC00037FC859137FE81915F01B60190E00E9468
:100FD000040921102A9421E0821A910881149104B5
:100FE00071F7E8C0843611F0893641F5F80137FE13
:100FF00007C060817181828193810C5F1F4F08C09F
:1010000060817181072E000C880B990B0E5F1F4FBA
:10101000F32DFF763F2E97FF09C090958095709530
:1010200061957F4F8F4F9F4FF0683F2E2AE030E051
:10103000A3010E944009882E861845C0853731F4E7
:10104000232D2F7EB22E2AE030E025C0932D997FEC
:10105000B92E8F36C1F018F4883579F0B5C08037D5
:1010600019F0883721F0B0C0E92FE061BE2EB4FE40
:101070000DC0FB2DF460BF2E09C034FE0AC0292F1D
:101080002660B22E06C028E030E005C020E130E046
:1010900002C020E132E0F801B7FE07C06081718133
:1010A000828193810C5F1F4F06C06081718180E057
:1010B00090E00E5F1F4FA3010E944009882E861802
:1010C000FB2DFF773F2E36FE0DC0232D2E7FA22E47
:1010D000891458F434FE0BC032FC09C0832D8E7E77
:1010E000A82E05C0B82CA32C03C0B82C01C0B92C65
:1010F000A4FE0FC0FE01E80DF11D8081803321F4B4
:101100009A2D997EA92E09C0A2FE06C0B394B3946D
:1011100004C08A2D867809F0B394A3FC11C0A0FE08
:1011200006C0B21488F4280C922C9B180EC0B2147E
:1011300060F4B60180E290E00E940409B394F7CF16
:10114000B21418F42B1802C0982C212CA4FE10C045
:10115000B60180E390E00E940409A2FE17C0A1FC42
:1011600003C088E790E002C088E590E0B6010CC0BB
:101170008A2D867859F0A1FE02C08BE201C080E280
:10118000A7FC8DE2B60190E00E940409891438F4AE
:10119000B60180E390E00E9404099A94F7CF8A9404
:1011A000F301E80DF11D8081B60190E00E94040971
:1011B0008110F5CF222009F442CEB60180E290E002
:1011C0000E9404092A94F6CFF6018681978102C015
:1011D0008FEF9FEF2B96E2E10C94BA09FC0105908A
:1011E000615070400110D8F7809590958E0F9F1F29
:1011F0000895FC016150704001900110D8F780956E
:1012000090958E0F9F1F08950F931F93CF93DF9399
:10121000FB01238121FD03C08FEF9FEF2CC022FF34
:1012200016C046815781248135814217530744F403
:10123000A081B1819D012F5F3F4F318320838C932B
:10124000268137812F5F3F4F3783268314C08B0160
:10125000EC01FB010084F185E02D0995892BE1F675
:10126000D80116968D919C911797019617969C938D
:101270008E931697CE01DF91CF911F910F91089514
:10128000FA01AA27283051F1203181F1E8946F93B7
:101290006E7F6E5F7F4F8F4F9F4FAF4FB1E03ED05D
:1012A000B4E03CD0670F781F891F9A1FA11D680FFB
:1012B000791F8A1F911DA11D6A0F711D811D911D2E
:1012C000A11D20D009F468943F912AE0269F1124A3
:1012D0003019305D3193DEF6CF010895462F477007
:1012E000405D4193B3E00FD0C9F7F6CF462F4F7062
:1012F000405D4A3318F0495D31FD4052419302D0C0
:10130000A9F7EACFB4E0A695979587957795679565
:10131000BA95C9F700976105710508959B01AC0165
:101320000A2E06945795479537952795BA95C9F78C
:10133000620F731F841F951FA01D08952F923F9267
:101340004F925F926F927F928F929F92AF92BF92D5
:10135000CF92DF92EF92FF920F931F93CF93DF9381
:10136000CDB7DEB7CA1BDB0B0FB6F894DEBF0FBEDE
:10137000CDBF09942A88398848885F846E847D842B
:101380008C849B84AA84B984C884DF80EE80FD802D
:101390000C811B81AA81B981CE0FD11D0FB6F894A3
:0E13A000DEBF0FBECDBFED010895F894FFCF64
:1013AE003738392F3435362A3132332D41303D2BF3
:1013BE0025642E2564006B65797061642069732045
:0613CE00776F726B000056
:00000001FF
