:100000000C942A000C9434000C9434000C943400AA
:100010000C9434000C9434000C9434000C94340090
:100020000C9434000C9434000C9434000C94340080
:100030000C9434000C9434000C9434000C94340070
:100040000C9434000C9434000C9434000C94340060
:100050000C94340011241FBECFE5D8E0DEBFCDBF25
:100060000E9436000C944A000C94000080EE81BB84
:1000700080E0982F9295990F907E92BB809BF9CF4C
:1000800090E0880F991F8160883008F087E08099A0
:08009000FECFEFCFF894FFCF83
:00000001FF
