:100000000C942A000C9434000C9434000C943400AA
:100010000C9434000C9434000C9434000C94340090
:100020000C9434000C9434000C9434000C94340080
:100030000C9434000C9434000C9434000C94340070
:100040000C9434000C9434000C9434000C94340060
:100050000C94340011241FBECFE5D8E0DEBFCDBF25
:100060000E9436000C9468000C9400008FEF84BB53
:1000700030E02BC0822F8295807F85BB85B3846062
:1000800085BB85B3877F85BBEFE3FCE93197F1F74B
:1000900000C00000832F8295807F85BB85B3886078
:1000A00085BB85B38B7F85BBEFE3FCE93197F1F727
:1000B00000C000009F5F01C090E09931D8F22F5F2F
:1000C00001C020E02A30C0F33F5F3A30D0F3D0CFF8
:0400D000F894FFCFD2
:00000001FF
