:100000000C942A000C9434000C9434000C943400AA
:100010000C9434000C9434000C9434000C94340090
:100020000C9434000C9434000C9434000C94340080
:100030000C9434000C9434000C9434000C94340070
:100040000C9434000C9434000C9434000C94340060
:100050000C94340011241FBECFE5D8E0DEBFCDBF25
:100060000E9436000C946D000C94000080EE81BB61
:1000700012BA25E015C032B381E090E0022E02C032
:10008000880F991F0A94E2F7832B82BB3FE78AE12E
:1000900096E0315080409040E1F700C000002F5FB3
:1000A000283048F327E016C032B381E090E0022EFA
:1000B00002C0880F991F0A94E2F78095832382BBC0
:1000C0003FE78AE196E0315080409040E1F700C080
:0E00D00000002150253040F7CCCFF894FFCF30
:00000001FF
