:100000000C942A000C9465000C9481000C949D00C3
:100010000C9434000C9434000C9434000C94340090
:100020000C9434000C9434000C9434000C94340080
:100030000C9434000C9434000C9434000C94340070
:100040000C9434000C9434000C9434000C94340060
:100050000C94340011241FBECFE5D8E0DEBFCDBF25
:100060000E9450000C94B9000C94000085B7816088
:1000700085BF85B78D7F85BF8BB780648BBF85B704
:10008000846085BF85B7886085BF8BB780688BBF6C
:1000900084B78F7B84BF8BB780628BBF78940895C1
:1000A0008A988B98BA988D9A8E9A8F9A0E94360069
:1000B0009598969897982FEF89E698E1215080407F
:1000C0009040E1F700C00000F3CF1F920F920FB6EF
:1000D0000F9211242F938F939F93859A85E08BBB6A
:1000E0002FEF89E698E1215080409040E1F700C071
:1000F00000009F918F912F910F900FBE0F901F9036
:1001000018951F920F920FB60F9211242F938F9371
:100110009F93869A86E08BBB2FEF89E698E121506A
:1001200080409040E1F700C000009F918F912F9197
:100130000F900FBE0F901F9018951F920F920FB641
:100140000F9211242F938F939F93879A87E08BBBF5
:100150002FEF89E698E1215080409040E1F700C000
:1001600000009F918F912F910F900FBE0F901F90C5
:060170001895F894FFCF82
:00000001FF
